:100000000C9462000C948A000C948A000C948A0070
:100010000C948A000C948A000C948A000C948A0038
:100020000C948A000C948A000C948A000C948A0028
:100030000C948A000C948A000C948A000C948A0018
:100040000C94F8030C948A000C94C6030C94A0033F
:100050000C948A000C948A000C948A000C948A00F8
:100060000C9442040C948A00000000002400270035
:100070002A0000000000250028002B0000000000DE
:1000800023002600290004040404040404040202DA
:100090000202020203030303030301020408102007
:1000A0004080010204081020010204081020000012
:1000B0000008000201000003040700000000000027
:1000C0000000610511241FBECFEFD8E0DEBFCDBF19
:1000D00011E0A0E0B1E0E0E9FFE002C005900D9280
:1000E000AA34B107D9F722E0AAE4B1E001C01D9219
:1000F000A73AB207E1F710E0C2E6D0E004C02197CA
:10010000FE010E94C007C136D107C9F70E949A05B7
:100110000C94C6070C940000E091E701F091E8010F
:10012000309729F01092E4011092E30109940895A8
:100130000895AF92BF92CF92DF92EF92FF920F930A
:100140001F93CF93DF936C017B018B01040F151F6D
:10015000EB015E01AE18BF08C017D10759F06991D5
:10016000D601ED91FC910190F081E02DC601099539
:10017000892B79F7C501DF91CF911F910F91FF90E6
:10018000EF90DF90CF90BF90AF900895FC01538D1A
:10019000448D252F30E0842F90E0821B930B541761
:1001A00010F0CF96089501970895FC01918D828DEE
:1001B000981761F0A28DAE0FBF2FB11D5D968C9187
:1001C000928D9F5F9F73928F90E008958FEF9FEFC6
:1001D0000895FC01918D828D981731F0828DE80F82
:1001E000F11D858D90E008958FEF9FEF0895FC013C
:1001F000918D228D892F90E0805C9F4F821B910909
:100200008F73992708958EEF91E00E94F70021E007
:10021000892B09F420E0822F089580E090E0892B5B
:1002200029F00E94030181110C9400000895FC0143
:10023000A48DA80FB92FB11DA35ABF4F2C91848D47
:1002400090E001968F739927848FA689B7892C93A4
:10025000A089B1898C91837080648C93938D848DF7
:10026000981306C00288F389E02D80818F7D8083FA
:100270000895EF92FF920F931F93CF93DF93EC01BA
:1002800081E0888F9B8D8C8D98131AC0E889F9893D
:10029000808185FF15C09FB7F894EE89FF89608340
:1002A000E889F98980818370806480839FBF81E0C1
:1002B00090E0DF91CF911F910F91FF90EF90089503
:1002C000F62E0B8D10E00F5F1F4F0F731127E02EDE
:1002D0008C8D8E110CC00FB607FCFACFE889F98916
:1002E000808185FFF5CFCE010E941701F1CFEB8D04
:1002F000EC0FFD2FF11DE35AFF4FF0829FB7F894EA
:100300000B8FEA89FB8980818062CFCFCF93DF9307
:10031000EC01888D8823B9F0AA89BB89E889F9891D
:100320008C9185FD03C0808186FD0DC00FB607FC52
:10033000F7CF8C9185FFF2CF808185FFEDCFCE0185
:100340000E941701E9CFDF91CF910895833081F0AA
:1003500028F4813099F08230A9F008958730A9F00F
:100360008830C9F08430B1F4809180008F7D03C063
:10037000809180008F7780938000089584B58F7777
:1003800084BD089584B58F7DFBCF8091B0008F77B9
:100390008093B00008958091B0008F7DF9CF1F93B6
:1003A000CF93DF93282F30E0F901E255FF4F84917E
:1003B000F901E656FF4FD491F901EA57FF4FC49176
:1003C000CC23A9F0162F81110E94A601EC2FF0E09A
:1003D000EE0FFF1FEE58FF4FA591B4918FB7F89421
:1003E000EC91111108C0D095DE23DC938FBFDF9113
:1003F000CF911F910895DE2BF8CFCF93DF9390E03C
:10040000FC01E656FF4F24918A579F4FFC018491CF
:100410008823D1F090E0880F991FFC01E859FF4F25
:10042000A591B491FC01EE58FF4FC591D491623073
:1004300071F49FB7F8943C91822F809583238C931D
:10044000E8812E2B28839FBFDF91CF9108958FB72E
:10045000F894EC912E2B2C938FBFF6CF8E508064A6
:1004600080937C0080917A00806480937A008091F0
:100470007A0086FDFCCF80917800909179000895F4
:1004800020919001260F3327331F21323105ECF4E0
:100490002091B401FC0190E080E0243069F082E01A
:1004A0000895A09190012191AC0140595E4FA40F95
:1004B000B52FB11D2C930196861798F3809190016A
:1004C000680F6093900180E0089581E00895109294
:1004D000B40181E08093B6011092B50161E082E140
:1004E0000E94CF0161E083E10E94CF01E9EBF0E0DF
:1004F00080818E7F808380818D7F808388E480935C
:10050000B80085E48093BC0008950895E091E60169
:100510008091E501E81730F4F0E0E65BFE4F808162
:1005200090E008958FEF9FEF08959091E6018091FC
:10053000E5012FEF3FEF981748F4E92FF0E0E65B75
:10054000FE4F208130E09F5F9093E601C90108953E
:100550008091E5019091E601891B990B0895CF9355
:10056000DF93CB01EA01642F0E944002CE01DF91AC
:10057000CF910895CF93DF9300D000D0CDB7DEB7F1
:100580008091EF019091F00199838091EF0190911A
:10059000F0018A838091ED019091EE019B8380911F
:1005A000ED019091EE018C8344E050E0BE016F5F5D
:1005B0007F4F8BE992E00E94AF020F900F900F9057
:1005C0000F90DF91CF910895CF93DF931F92CDB716
:1005D000DEB7698361E0CE0101960E94400281E0AE
:1005E00090E00F90DF91CF91089590E080E0089522
:1005F000FC0101900020E9F73197AF01481B590B2E
:10060000BC018EEF91E00C9499008F929F92AF9273
:10061000BF920F931F93CF93DF93CDB7DEB7A19710
:100620000FB6F894DEBF0FBECDBF19A2423008F45A
:100630004AE08E010F5D1F4F842E912CB12CA12C0E
:10064000A50194010E949E07E62FB901CA01EA3074
:10065000F4F4E05DD801EE938D01232B242B252BA0
:1006600079F790E080E0109719F0CD010E94F80230
:10067000A1960FB6F894DEBF0FBECDBFDF91CF912C
:100680001F910F91BF90AF909F908F900895E95C5C
:10069000E1CFCF93DF9385ED8093BC0080916C0117
:1006A00090916D01A0916E01B0916F010796A11D0F
:1006B000B11D23E0B695A795979587952A95D1F713
:1006C0002091BC0024FD03C01092B40136C04091BB
:1006D0006C0150916D0160916E0170916F01452B1D
:1006E000462B472B69F30097A105B10541F02AE29B
:1006F0002A95F1F700C00197A109B109E1CF8091D6
:100700006B0191E090936A018823B9F0C091B80021
:10071000D091BA008091BC008A7B8093BC0060E0DD
:1007200082E10E94CF0160E083E10E94CF010E943C
:100730006702D093BA00C093B800DF91CF910895BB
:100740001F920F920FB60F9211242F933F934F9346
:100750005F936F937F938F939F93AF93BF93EF9329
:10076000FF938EEF91E00E941701FF91EF91BF91EF
:10077000AF919F918F917F916F915F914F913F9139
:100780002F910F900FBE0F901F9018951F920F92F0
:100790000FB60F9211242F938F939F93EF93FF9394
:1007A000E0910E02F0910F028081E0911402F0912D
:1007B000150282FD1BC09081809117028F5F8F739D
:1007C00020911802821741F0E0911702F0E0E25008
:1007D000FE4F958F80931702FF91EF919F918F911C
:1007E0002F910F900FBE0F901F9018958081F4CF1E
:1007F0001F920F920FB60F9211242F933F938F9356
:100800009F93AF93BF938091F1019091F201A091DA
:10081000F301B091F4013091DE0123E0230F2D3775
:1008200058F50196A11DB11D2093DE018093F101C1
:100830009093F201A093F301B093F4018091DA0157
:100840009091DB01A091DC01B091DD010196A11D29
:10085000B11D8093DA019093DB01A093DC01B0938A
:10086000DD01BF91AF919F918F913F912F910F909B
:100870000FBE0F901F90189526E8230F0296A11D1A
:10088000B11DD2CF1F920F920FB60F9211242F934A
:100890003F934F935F936F937F938F939F93AF9308
:1008A000BF93EF93FF938091B900887F803609F45E
:1008B0004AC0F0F5883209F4A7C018F5803109F470
:1008C0009BC0B8F4882309F4F9C0883009F494C0B7
:1008D000FF91EF91BF91AF919F918F917F916F9118
:1008E0005F914F913F912F910F900FBE0F901F90EE
:1008F0001895883109F488C0803251F78093B3018C
:1009000014C0803409F49DC040F48033B9F38833B7
:10091000F9F68093B30185ECB0C0803509F485C049
:10092000883509F496C0883499F60E944903D0CFDF
:10093000883909F48CC038F5883729F050F48836A6
:1009400011F0803729F683E08093B4011092B20150
:1009500057C0883809F47BC0803919F0803809F015
:10096000B7CF8091B201803208F071C0E091B2013E
:1009700081E08E0F8093B2018091BB00F0E0EE56D3
:10098000FE4F80833DC0803B39F0E0F4803A09F4AB
:1009900079C0883A09F09CCF84E08093B40110922A
:1009A000910110929001E091E101F091E20109952D
:1009B0008091900181110FC081E08093900110928D
:1009C000700109C0803C09F4A6CF883C09F4A3CF8C
:1009D000883B09F07DCFE091910181E08E0F8093FB
:1009E0009101F0E0E059FE4F80818093BB0090912F
:1009F00091018091900129C08091D9018093BB0021
:100A000085EC8093BC0064CF9091D8018091D70190
:100A1000981758F5E091D80181E08E0F8093D801A6
:100A2000F0E0E954FE4F8081E9CFE091D80181E008
:100A30008E0F8093D8018091BB00F0E0E954FE4F07
:100A400080839091D8018091D7019817C8F285E8EA
:100A5000D8CFE091D80181E08E0F8093D8018091AA
:100A6000BB00F0E0E954FE4F80838091B601811114
:100A70005CCF81E08093B50184EA8093BC00109242
:100A8000B40126CF85EC8093BC001092B401809114
:100A9000B201803230F4E091B201F0E0EE56FE4F48
:100AA00010826091B20170E0E091DF01F091E0010D
:100AB00082E991E009951092B2010ACF1092B30138
:100AC00034CFEEEFF1E01382128288EE93E0A0E0E3
:100AD000B0E084839583A683B78326E031E0318339
:100AE000208325EC30E03587248724EC30E03787FD
:100AF000268720EC30E0318B208B21EC30E0338BEB
:100B0000228B22EC30E0358B248B26EC30E0378BC7
:100B1000268B118E128E138E148EEBE9F2E0138267
:100B2000128284839583A683B78388E191E09183C1
:100B300080830895789484B5826084BD84B5816093
:100B400084BD85B5826085BD85B5816085BD809198
:100B50006E00816080936E00109281008091810010
:100B60008260809381008091810081608093810008
:100B7000809180008160809380008091B1008460CA
:100B80008093B1008091B00081608093B00080912B
:100B90007A00846080937A0080917A0082608093EA
:100BA0007A0080917A00816080937A0080917A0047
:100BB000806880937A001092C10062E082E00E9417
:100BC000FD0161E089E00E94FD0161E089E00E9491
:100BD000FD0160E089E00E94CF011092E6011092D1
:100BE000E5011092E4011092E3010E9467028CE893
:100BF00090E09093E2018093E10188E990E0909386
:100C0000E0018093DF0180E18093BA002AEB32E0BB
:100C10003093E8012093E701E0910E02F0910F027A
:100C200092E09083E0910A02F0910B021082E09131
:100C30000C02F0910D02808310921602E0911202D4
:100C4000F091130286E08083E0911002F09111028E
:100C5000808180618083E0911002F0911102808197
:100C600088608083E0911002F09111028081806899
:100C70008083E0911002F091110280818F7D80834A
:100C800000EB10E05CE9E52E50E0F52E68E8C62E9A
:100C900060E0D62ED1E077EB872E70E0972E40E013
:100CA000A42E40E0B42E8EE00E942E029093F90113
:100CB0008093F8018FE00E942E029093F7018093B9
:100CC000F601F8018491F701C491F6017490772040
:100CD00009F4E6C081110E94A601E72DF0E0EE0FB5
:100CE000FF1FE458FF4FA591B4918C91C82331E0C8
:100CF00020E009F430E0832F922F282F21703091CB
:100D00000101231799F03FB7F8944091F1015091F8
:100D1000F2016091F3017091F4013FBF4093E9014A
:100D20005093EA016093EB017093EC013FB7F894A4
:100D30004091F1015091F2016091F3017091F40141
:100D40003FBF4090E9015090EA016090EB01709044
:100D5000EC014419550966097709433351056105CA
:100D6000710570F030910001231751F03091F501B9
:100D700020930001892B21F4832F8D278093F50187
:100D8000209301018091F501C0E0882349F0809112
:100D9000F8019091F9019695879596958795C82FBA
:100DA00061E089E00E94FD01C1117DC060E089E041
:100DB0000E94CF018091F8019091F9019093F00188
:100DC0008093EF018091F6019091F7019093EE01ED
:100DD0008093ED012FB7F8948091F1019091F20189
:100DE000A091F301B091F4012FBF4091FA0150910D
:100DF000FB016091FC017091FD01841B950BA60B1A
:100E0000B70B883C9105A105B10508F43DC02FB78B
:100E1000F8948091F1019091F201A091F301B091C9
:100E2000F4012FBF8093FA019093FB01A093FC0182
:100E3000B093FD018DE291E00E94F8026091F8010B
:100E40007091F90190E080E04AE00E94050384E39C
:100E500091E00E94F8026091F6017091F70190E034
:100E600080E04AE00E9405038CE391E00E94F802D2
:100E70008091F50181115FC086E291E00E94F80245
:100E800087E491E00E94F802A114B10409F40BCFA9
:100E90000E940301882309F406CF0E940000FFCEC0
:100EA00090E080E02ACFCF3F11F461E080CFF401E1
:100EB0008491833021F138F48130B9F08230D1F05F
:100EC000C7FDF3CF73CF873031F1883061F18430C3
:100ED000B9F7809180008062809380008C2F90E031
:100EE00090938B0080938A0065CF84B5806884BD21
:100EF000C7BD60CF84B5806284BDC8BD5BCF809123
:100F000080008068809380008C2F90E0909389000F
:100F1000809388004FCF8091B00080688093B000AC
:100F2000C093B30047CF8091B00080628093B0003F
:100F3000C093B4003FCF89E291E0A0CFA1E21A2E86
:100F4000AA1BBB1BFD010DC0AA1FBB1FEE1FFF1F6D
:100F5000A217B307E407F50720F0A21BB30BE40BBD
:100F6000F50B661F771F881F991F1A9469F7609504
:100F70007095809590959B01AC01BD01CF010895BE
:100F8000EE0FFF1F0590F491E02D0994F894FFCF28
:100F900001010000000039019900C6008601F70038
:100FA000D500E90000000000E402AF02F50285026E
:100FB000A802950286024E4F0059455300537065B2
:100FC00065643A0020204C6F61643A00202052751D
:0A0FD0006E6E696E673A000D0A00AC
:00000001FF
