:100000000C945E000C9486000C9486000C94860080
:100010000C9486000C9486000C9486000C941106B7
:100020000C9486000C9486000C9486000C94860038
:100030000C9486000C9486000C9486000C94860028
:100040000C94C5060C9486000C9493060C946D06D3
:100050000C9486000C9486000C9486000C94860008
:100060000C940F070C948600000000002400270069
:100070002A0000000008000201000003040700003D
:10008000000000000000010204081020408001026E
:1000900004081020010204081020000000002500C0
:1000A00028002B00040404040404040402020202D5
:1000B000020203030303030302002E0811241FBEE0
:1000C000CFEFD8E0DEBFCDBF11E0A0E0B1E0E2EDC0
:1000D000FEE102C005900D92AA3CB107D9F723E0DA
:1000E000AAECB1E001C01D92A135B207E1F710E022
:1000F000CEE5D0E004C02197FE010E947C0CCD35F6
:10010000D107C9F70E9484080C94670F0C94000073
:1001100008950895AF92BF92CF92DF92EF92FF922F
:100120000F931F93CF93DF936C017B018B01040F1F
:10013000151FEB015E01AE18BF08C017D10759F0BB
:100140006991D601ED91FC910190F081E02DC601FD
:100150000995892B79F7C501DF91CF911F910F91F7
:10016000FF90EF90DF90CF90BF90AF900895FC018B
:10017000538D448D252F30E0842F90E0821B930B0C
:10018000541710F0CF96089501970895FC01918DB2
:10019000828D981761F0A28DAE0FBF2FB11D5D96B5
:1001A0008C91928D9F5F9F73928F90E008958FEF57
:1001B0009FEF0895FC01918D828D981731F0828D0B
:1001C000E80FF11D858D90E008958FEF9FEF089562
:1001D000FC01918D228D892F90E0805C9F4F821BC6
:1001E00091098F739927089580E992E00E94E800B1
:1001F00021E0892B09F420E0822F089580E090E02F
:10020000892B29F00E94F40081110C9400000895BC
:10021000FC01A48DA80FB92FB11DA35ABF4F2C917B
:10022000848D90E001968F739927848FA689B78972
:100230002C93A089B1898C91837080648C93938D69
:10024000848D981306C00288F389E02D80818F7D0C
:1002500080830895EF92FF920F931F93CF93DF93C4
:10026000EC0181E0888F9B8D8C8D98131AC0E889F2
:10027000F989808185FF15C09FB7F894EE89FF89C1
:100280006083E889F98980818370806480839FBF5F
:1002900081E090E0DF91CF911F910F91FF90EF905F
:1002A0000895F62E0B8D10E00F5F1F4F0F7311276F
:1002B000E02E8C8D8E110CC00FB607FCFACFE889AA
:1002C000F989808185FFF5CFCE010E940801F1CF29
:1002D000EB8DEC0FFD2FF11DE35AFF4FF0829FB71E
:1002E000F8940B8FEA89FB8980818062CFCFCF930E
:1002F000DF93EC01888D8823B9F0AA89BB89E8894E
:10030000F9898C9185FD03C0808186FD0DC00FB6F3
:1003100007FCF7CF8C9185FFF2CF808185FFEDCF71
:10032000CE010E940801E9CFDF91CF91089590E0BE
:10033000FC01EE58FF4F2491FC01EA57FF4F349126
:10034000FC01EC55FF4FE491EE23C9F0222339F074
:10035000233001F1A8F4213019F1223029F1F0E025
:10036000EE0FFF1FE656FF4FA591B4918FB7F8949B
:10037000EC91611126C030953E233C938FBF0895C8
:100380002730A9F02830C9F0243049F78091800047
:100390008F7D03C0809180008F7780938000DFCFB6
:1003A00084B58F7784BDDBCF84B58F7DFBCF809103
:1003B000B0008F778093B000D2CF8091B0008F7D56
:1003C000F9CF3E2BDACF9091060189130BC0E8EBF1
:1003D000F0E0E4919FEF90930601E13049F028F0BE
:1003E000E23061F060E00C94970110926E00FACF59
:1003F00090916F009D7F90936F00F4CF909170006B
:100400009D7F9093700091E09093B0009091B10027
:10041000987F94609093B1001092B300E3CFCF9394
:10042000DF9390E0FC01EA57FF4F24918C559F4FDA
:10043000FC0184918823D1F090E0880F991FFC0182
:10044000E859FF4FA591B491FC01E656FF4FC591C5
:10045000D491623071F49FB7F8943C91822F8095CB
:1004600083238C93E8812E2B28839FBFDF91CF912C
:1004700008958FB7F894EC912E2B2C938FBFF6CF65
:10048000CF92DF92EF92FF920F931F93CF938C0145
:1004900080910601883051F08F3FC1F1CF911F91BB
:1004A0000F91FF90EF90DF90CF900895E8EBF0E090
:1004B000C491C7FDF3CF61E088E00E940F02C11133
:1004C0003BC0980150E040E068E478EE81E090E0C5
:1004D0000E942C0CBA01A90141505109610971090E
:1004E00085B5887F836085BD47BD8FEF9FEFDC01B9
:1004F00080938C0290938D02A0938E02B0938F0212
:1005000080916E00826080936E00C8CF88E08093F7
:100510000601E8EBF0E0C491CF3F09F4BFCFC13052
:1005200009F44EC0A0F1C23009F468C0C7FDB6CFCF
:1005300061E088E00E940F02980150E040E0C23084
:1005400009F07EC060E970ED83E090E00E942C0C21
:10055000BA01A90141505109610971098091B100A5
:10056000887F83608093B1004093B3008FEF9FEF4B
:10057000DC018093840290938502A0938602B0935D
:1005800087028091700082608093700087CF14BCD6
:1005900015BC84B5826084BD85B5816085BDECEAFB
:1005A000F0E0E491F0E0EE0FFF1FE656FF4F85917B
:1005B0009491EEE8F0E0E491E0938302C0E07BCF19
:1005C0001092800010928100809181008860809359
:1005D000810080918100816080938100ECEAF0E0ED
:1005E000E491F0E0EE0FFF1FE656FF4F85919491E6
:1005F000EEE8F0E0E491E09382025DCF1092B0006B
:100600001092B1008091B00082608093B000809120
:10061000B10081608093B100ECEAF0E0E491F0E099
:10062000EE0FFF1FE656FF4F859194919093810244
:1006300080938002EEE8F0E0E491E0937F023BCF0C
:1006400060E072E18AE790E00E942C0C69017A0177
:1006500081E0C81AD108E108F108A601C130D9F437
:1006600080918100887F816080938100D092890091
:10067000C09288008FEF9FEFDC01809388029093F7
:100680008902A0938A02B0938B0280916F008260EE
:1006900080936F0003CFC23009F466CFC111FECE44
:1006A00023CF3FB7F89480910E0290910F02A09152
:1006B0001002B091110226B5A89B05C02F3F19F07A
:1006C0000196A11DB11D3FBFBA2FA92F982F8827D2
:1006D000BC01CD01620F711D811D911D42E0660FAD
:1006E000771F881F991F4A95D1F708950895209183
:1006F000EA01260F3327331F21323105ECF4209114
:100700003F02FC0190E080E0243069F082E008952F
:10071000A091EA012191AC0146535E4FA40FB52F81
:10072000B11D2C930196861798F38091EA01680F0A
:100730006093EA0180E0089581E0089510923F02FD
:1007400081E080933E021092390261E082E10E94D2
:10075000970161E083E10E949701E9EBF0E080817D
:100760008E7F808380818D7F808388E48093B80032
:1007700085E48093BC000895CF93DF9391E090933C
:1007800018028823B9F0C091B800D091BA008091C6
:10079000BC008A7B8093BC0060E082E10E949701EC
:1007A00060E083E10E9497010E949E03D093BA000B
:1007B000C093B800DF91CF9108950895E09146026B
:1007C00080914502E81730F4F0E0E95BFD4F80814D
:1007D00090E008958FEF9FEF0895909146028091E9
:1007E00045022FEF3FEF981748F4E92FF0E0E95B5F
:1007F000FD4F208130E09F5F90934602C90108952C
:100800008091450290914602891B990B0895CF93E0
:10081000DF93CB01EA01642F0E947703CE01DF91C1
:10082000CF910895CF93DF931F92CDB7DEB7698341
:1008300061E0CE0101960E94770381E090E00F9085
:10084000DF91CF91089590E080E00895CF93DF93FA
:10085000EC0160E08E810E94970161E08E810E9430
:10086000970160E08E810E9497018BE891E00197EB
:10087000F1F7DF91CF910895CF92DF92EF92FF923F
:100880000F931F93CF93DF936C017C0187E0E80EF9
:10089000F11CD0E0C0E0062F10E0B8010C2E02C021
:1008A000759567950A94E2F76170F70181917F0170
:1008B0000E9497012196C430D10579F7C601DF91D6
:1008C000CF911F910F91FF90EF90DF90CF900C94FC
:1008D0002604CF92DF92EF92FF920F931F93CF9354
:1008E000DF93EC01F62E642F8C810E9497018D819D
:1008F0008F3F19F060E00E9497010F2D10E08F8567
:1009000084FF25C06E0187E0C80ED11CF12CE12CBC
:10091000B8010E2C02C0759567950A94E2F76170D4
:10092000F60181916F010E949701FFEFEF1AFF0A14
:1009300088E0E816F10461F7CE01DF91CF911F91B5
:100940000F91FF90EF90DF90CF900C942604B801A8
:1009500084E0759567958A95E1F7CE010E943C0485
:100960006F2DCE01DF91CF911F910F91FF90EF90EE
:10097000DF90CF900C943C0440E0682F89E393E033
:100980000C946904CF93DF93823029F4909148034B
:1009900098609093480380934C0310924D0380E439
:1009A00080934E0380E180934F0380E58093500352
:1009B00061E080913D030E940F0280913E038F3FD2
:1009C00019F061E00E940F0261E080913F030E94F4
:1009D0000F02C9E3D3E09E012953334080914803BD
:1009E00084FD0BC084E090E021962817390744F479
:1009F00061E08E810E940F02EECF88E090E0F4CF9C
:100A00008BE39DE00197F1F760E080913D030E9448
:100A1000970160E080913F030E94970180913E031F
:100A20008F3F19F060E00E9497018091480384FD98
:100A300039C063E089E393E00E943C04CBE4D6E450
:100A4000CE010197F1F763E089E393E00E943C0453
:100A50002197F1F763E089E393E00E943C0483E58A
:100A600092E00197F1F762E089E393E00E943C0491
:100A70008091480380620E94BC0484E08093490313
:100A80008CE00E94BC0481E00E94BC048BE39FE1E7
:100A90000197F1F782E080934A0386E0DF91CF91DE
:100AA0000C94BC0480620E94BC048BE496E4019721
:100AB000F1F78091480380620E94BC0483E592E0D4
:100AC0000197F1F78091480380620E94BC04D0CF67
:100AD00090914C03891710F08FEF890FE82FF0E009
:100AE000E75CFC4F848980680C94BC0441E00E9460
:100AF000690481E090E00895FB0101900020E9F78E
:100B00003197AF01461B570BDC01ED91FC91028040
:100B1000F381E02D09948F929F92AF92BF920F9331
:100B20001F93CF93DF93CDB7DEB7A1970FB6F8949D
:100B3000DEBF0FBECDBF19A2423008F44AE08E01DD
:100B40000F5D1F4F842E912CB12CA12CA501940177
:100B50000E944B0CE62FB901CA01EA3004F5E05DB2
:100B6000D801EE938D01232B242B252B79F790E0D0
:100B700080E0109729F0BD0180E992E00E947C0599
:100B8000A1960FB6F894DEBF0FBECDBFDF91CF9117
:100B90001F910F91BF90AF909F908F900895E95C47
:100BA000DFCF6115710511F00C947C0590E080E0B9
:100BB000089585ED8093BC0080914102909142029E
:100BC000A0914302B09144020796A11DB11D23E0FC
:100BD000B695A795979587952A95D1F72091BC0052
:100BE00024FD03C010923F020895409141025091AC
:100BF00042026091430270914402452B462B472BE1
:100C000069F30097A105B10541F02AE22A95F1F7B1
:100C100000C00197A109B109E1CF809140020C9475
:100C2000BC031F920F920FB60F9211242F933F9384
:100C30004F935F936F937F938F939F93AF93BF93E4
:100C4000EF93FF938091840290918502A091860298
:100C5000B0918702892B8A2B8B2BD1F190917F0247
:100C6000E0918002F09181028081892780838091C8
:100C7000840290918502A0918602B0918702181695
:100C800019061A061B069CF4809184029091850235
:100C9000A0918602B09187020197A109B1098093C2
:100CA000840290938502A0938602B0938702FF91FD
:100CB000EF91BF91AF919F918F917F916F915F91D4
:100CC0004F913F912F910F900FBE0F901F9018954D
:100CD000809106010E94E301EACF1F920F920FB6A6
:100CE0000F9211242F933F934F935F936F937F93B2
:100CF0008F939F93AF93BF93EF93FF9380E992E01D
:100D00000E940801FF91EF91BF91AF919F918F9148
:100D10007F916F915F914F913F912F910F900FBEF7
:100D20000F901F9018951F920F920FB60F921124DB
:100D30002F938F939F93EF93FF93E091A002F091F5
:100D4000A1028081E091A602F091A70282FD1BC062
:100D500090818091A9028F5F8F732091AA028217E0
:100D600041F0E091A902F0E0E057FD4F958F8093AC
:100D7000A902FF91EF919F918F912F910F900FBE3C
:100D80000F901F9018958081F4CF1F920F920FB68D
:100D90000F9211242F933F938F939F93AF93BF9301
:100DA0008091690290916A02A0916B02B0916C02ED
:100DB00030910D0223E0230F2D3758F50196A11D28
:100DC000B11D20930D028093690290936A02A09353
:100DD0006B02B0936C0280910E0290910F02A09171
:100DE0001002B09111020196A11DB11D80930E0257
:100DF00090930F02A0931002B0931102BF91AF9194
:100E00009F918F913F912F910F900FBE0F901F9048
:100E1000189526E8230F0296A11DB11DD2CF1F926F
:100E20000F920FB60F9211242F933F934F935F931E
:100E30006F937F938F939F93AF93BF93EF93FF93A2
:100E40008091B900887F803609F44AC0F0F5883275
:100E500009F4A7C018F5803109F49BC0B8F48823C1
:100E600009F4F9C0883009F494C0FF91EF91BF9163
:100E7000AF919F918F917F916F915F914F913F9132
:100E80002F910F900FBE0F901F901895883109F485
:100E900088C0803251F780933D0214C0803409F439
:100EA0009DC040F48033B9F38833F9F680933D0256
:100EB00085ECB0C0803509F485C0883509F496C04A
:100EC000883499F60E94D905D0CF883909F48CC0AE
:100ED00038F5883729F050F4883611F0803729F634
:100EE00083E080933F0210920C0257C0883809F4C7
:100EF0007BC0803919F0803809F0B7CF80910C029F
:100F0000803208F071C0E0910C0281E08E0F809376
:100F10000C028091BB00F0E0E451FE4F80833DC0A5
:100F2000803B39F0E0F4803A09F479C0883A09F05E
:100F30009CCF84E080933F021092EB011092EA0173
:100F4000E0911402F091150209958091EA01811156
:100F50000FC081E08093EA011092CA0109C0803C71
:100F600009F4A6CF883C09F4A3CF883B09F07DCFD4
:100F7000E091EB0181E08E0F8093EB01F0E0E6530E
:100F8000FE4F80818093BB009091EB018091EA013C
:100F900029C080913A028093BB0085EC8093BC000D
:100FA00064CF90913C0280913B02981758F5E091F4
:100FB0003C0281E08E0F80933C02F0E0E75EFD4F43
:100FC0008081E9CFE0913C0281E08E0F80933C026A
:100FD0008091BB00F0E0E75EFD4F808390913C0282
:100FE00080913B029817C8F285E8D8CFE0913C0287
:100FF00081E08E0F80933C028091BB00F0E0E75EC1
:10100000FD4F808380913E0281115CCF81E080930F
:10101000390284EA8093BC0010923F0226CF85EC0F
:101020008093BC0010923F0280910C02803230F419
:10103000E0910C02F0E0E451FE4F108260910C024E
:1010400070E0E0911202F09113028CEE91E00995AC
:1010500010920C020ACF10923D0234CFE0E9F2E088
:101060001382128288EE93E0A0E0B0E0848395833F
:10107000A683B7832BE031E03183208325EC30E079
:101080003587248724EC30E03787268720EC30E052
:10109000318B208B21EC30E0338B228B22EC30E043
:1010A000358B248B26EC30E0378B268B118E128EFD
:1010B000138E148EEDE2F3E0138212828483958303
:1010C000A683B7838DE191E091838083E9E3F3E028
:1010D000138212828FE291E09183808382E0848385
:1010E0008FEF858383E0868384E0878385E0808734
:1010F0008BE081878CE0828713861486158616869E
:10110000178681E00C94C204CF93DF93CDB7DEB78E
:1011100063970FB6F894DEBF0FBECDBF789484B549
:10112000826084BD84B5816084BD85B5826085BDE3
:1011300085B5816085BD80916E00816080936E0071
:101140001092810080918100826080938100809163
:101150008100816080938100809180008160809314
:1011600080008091B10084608093B1008091B000D4
:1011700081608093B00080917A00846080937A00CF
:1011800080917A00826080937A0080917A008160F9
:1011900080937A0080917A00806880937A00109220
:1011A000C10061E087E00E940F0261E088E00E94D8
:1011B0000F0261E087E00E94970188E00E94E3014E
:1011C00062E082E10E940F0261E083E10E940F026F
:1011D00019E023E2E22EF12C60E083E10E94970106
:1011E000C7010197F1F761E083E10E949701C70110
:1011F0000197F1F7115081F71092460210924502C3
:1012000010921702109216020E949E0388E890E046
:10121000909315028093140289E890E09093130252
:10122000809312021092180288EA91E6A0E0B0E0E2
:101230008093410290934202A0934302B0934402F0
:1012400081E08093400282E00E94C20469E471E080
:1012500089E393E00E94D105E091A002F091A10200
:1012600082E08083E0919C02F0919D021082E091E7
:101270009E02F0919F0280E180831092A802E0918B
:10128000A402F091A50286E08083E091A202F09191
:10129000A302808180618083E091A202F091A30289
:1012A000808188608083E091A202F091A302808116
:1012B00080688083E091A202F091A30280818F7DFB
:1012C00080832FB7F8948091690290916A02A0916F
:1012D0006B02B0916C022FBF8093730290937402E3
:1012E000A0937502B09376029AE6892E91E0992E2A
:1012F0008E010F5F1F4FBB24B394AA24AA948FB70B
:10130000F894C0906902D0906A02E0906B02F0906D
:101310006C028FBF80917B0290917C02A0917D0234
:10132000B0917E02A7019601281B390B4A0B5B0B7B
:10133000DA01C901883C9105A105B10508F4DDC0B9
:10134000C0927B02D0927C02E0927D02F0927E02FB
:101350000E9451032B013C0180913F02811163C027
:10136000B0923F02B0923E02A0923D0210923C0227
:1013700083E080933B02B0923A0280913A0280610E
:1013800080933A0280913902813009F0AAC110920B
:1013900039020E9451032B013C0180913A02809353
:1013A000BB008091410290914202A0914302B09112
:1013B0004402892B8A2B8B2BA1F00E945103209190
:1013C000410230914202409143025091440264191B
:1013D000750986099709261737074807590708F43A
:1013E00043C08091BC0083FDD8CF85EC8093BC00C6
:1013F0000E9451032B013C0180913F02813009F48E
:1014000072C180913C02843008F08FC180913C020F
:10141000A9E1B2E0E7E4F2E090E0981751F12D91F4
:1014200021939F5FFACF8091410290914202A09157
:101430004302B0914402892B8A2B8B2B09F48CCF69
:101440000E94510320914102309142024091430297
:1014500050914402641975098609970926173707C0
:101460004807590708F078CF809140020E94BC03DA
:1014700080E010924602809345028430F1F58DE2BF
:1014800093E00E94ED03682E8DE293E00E94ED034D
:10149000782E8DE293E00E94ED03582E8DE293E0CA
:1014A0000E94ED03352C212CA101482BCA016B8A27
:1014B0001A8A2A893B89272930937A022093790254
:1014C0009093780280937702C0927302D092740254
:1014D000E0927502F09276022091710230917202D0
:1014E0002115310509F023C18C3B9240F8F081E0D1
:1014F00090E09093720280937102809173029091B8
:101500007402A0917502B0917602C81AD90AEA0A4B
:10151000FB0A31EDC31637E0D306E104F10430F0E5
:1015200042E050E05093720240937102E0907102E9
:10153000F09072028091670290916802E816F906B5
:1015400081F051E0E516F10409F406C108F4FCC08D
:1015500092E0E916F10409F408C1F0926802E09201
:10156000670280910201909103018E159F05E1F4BD
:101570002091790230917A028091000190910101CD
:101580002817390789F48091770290917802209189
:10159000040130910501821B930B97FF03C09195C5
:1015A00081959109039724F121E0E216F10409F4F1
:1015B00029C108F4E1C042E0E416F10409F439C19C
:1015C0008091790290917A029093010180930001B9
:1015D00080917702909178029093050180930401A5
:1015E00080917102909172029093030180930201A5
:1015F0002FB7F8948091690290916A02A0916B02D2
:10160000B0916C022FBF40916D0250916E026091BB
:101610006F0270917002841B950BA60BB70B843F71
:101620009140A105B10508F44FC02FB7F8948091FF
:10163000690290916A02A0916B02B0916C022FBF77
:1016400080936D0290936E02A0936F02B09370022C
:1016500069EA71E080E992E00E94D105809171020F
:101660009091720267E371E0009731F06EE371E0F0
:10167000019711F46AE371E080E992E00E94D105DC
:1016800061EB71E080E992E00E94D10560917902FE
:1016900070917A0290E080E04AE00E948B056CEB4A
:1016A00071E080E992E00E94D1056091770270912B
:1016B000780290E080E04AE00E948B0566EC71E0E1
:1016C00080E992E00E947C0540E050E0452B09F45F
:1016D00016CE0E94F400882309F40DCE0E9400006B
:1016E0000ACE85EE83CE8091410290914202A09174
:1016F0004302B0914402892B8A2B8B2B09F47CCEB8
:101700000E945103209141023091420240914302D4
:1017100050914402641975098609970926173707FD
:101720004807590708F068CE9FCE84E071CE21307B
:10173000310509F0FBCE8B38924008F0F7CE1092BD
:10174000720210927102D9CE61E087E00E94970187
:1017500088E00E94E30101CF60E087E00E949701EA
:1017600088EE93E00E944002F8CE60E087E00E949D
:10177000970184EC99E0F6CF2091790230917A02BA
:10178000211554E0350710F02FEF33E0A4E6B0E068
:101790000E946D0C2FEF33E040E050E00E942C0CD3
:1017A0003F932F9388E591E09F938F931F9281E160
:1017B000F82EFF921F930F930E94820C80E00E94EC
:1017C0006805B80189E393E00E94D1058091780211
:1017D0008F93809177028F939F928F921F92FF92A7
:1017E0001F930F930E94820C81E00E946805B8014C
:1017F00089E393E00E94D1050FB6F894DEBF0FBED7
:10180000CDBFDECE80E00E94680566E771E089E327
:1018100093E00E94D105809178028F9380917702A6
:101820008F939F928F921F9281E18F931F930F93BB
:10183000D9CF80E00E94680567E871E089E393E012
:101840000E94D10581E00E94680568E971E089E3A2
:1018500093E00E94D105B4CE052E97FB1EF40094B0
:101860000E94430C57FD07D00E944B0C07FC03D08D
:101870004EF40C94430C50954095309521953F4F74
:101880004F4F5F4F089590958095709561957F4F6C
:101890008F4F9F4F0895A1E21A2EAA1BBB1BFD017B
:1018A0000DC0AA1FBB1FEE1FFF1FA217B307E4073F
:1018B000F50720F0A21BB30BE40BF50B661F771F97
:1018C000881F991F1A9469F7609570958095909577
:1018D0009B01AC01BD01CF010895A29FB001B39F50
:1018E000C001A39F700D811D1124911DB29F700D29
:1018F000811D1124911D0895EE0FFF1F0590F49195
:10190000E02D0994AEE0B0E0E8E8FCE00C943E0F76
:101910000D891E898F89988D26E02C831A8309836F
:1019200097FF02C080E090E801979E838D83AE010F
:10193000455E5F4F698D7A8DCE0101960E94B20C93
:101940004D815E8157FD0AC02F81388542175307AC
:101950000CF49A01020F131FF80110822E96E4E096
:101960000C945A0FABE0B0E0E8EBFCE00C94300FC5
:101970007C013B018A01FC0117821682838181FF71
:10198000C8C1CE0101965C01F7019381F30193FD7B
:10199000859193FF81913F01882309F453C18532DA
:1019A00039F493FD859193FF81913F01853229F4AC
:1019B000B70190E00E94A20EE7CF912C212C312C90
:1019C000FFE1F31538F08B3211F190F4803209F118
:1019D000833229F137FC3CC020ED280F2A3050F526
:1019E00036FE20C08AE0989E200D1124922E06C05B
:1019F0008D3291F0803371F7689430F8F30193FDE4
:101A0000859193FF81913F018111DACF21C06894C4
:101A100031F8689432F8F2CF689433F8EFCF6894D5
:101A200034F8ECCFEAE02E9E200D1124222E68948B
:101A300035F8E4CF8E3229F436FC04C1689436F8C8
:101A4000DDCF8C3619F4689437F8D8CF8836B1F2E8
:101A5000982F9F7D95549330E0F08336A1F1833722
:101A6000C1F1833509F063C02801F2E04F0E511C2B
:101A7000F801C080D180692D70E036FC02C06FEFA4
:101A80007FEFC6010E948C0E4C01689437F88201EA
:101A90000AC00C5F1F4FFFE3F98388248394912CC5
:101AA0006501E89437F833FE2DC0522C811491045F
:101AB00071F5552009F468CFB70180E290E00E94EB
:101AC000A20E5A94F6CFF801808189830E5F1F4FD2
:101AD000E4CF2801F2E04F0E511CF801C080D18004
:101AE000692D70E036FC02C06FEF7FEFC6010E94E7
:101AF000970E4C018201D5CFB70180E290E00E94A1
:101B0000A20E2A942814190409F0B0F7CECFF601DA
:101B100037FC859137FE81916F01B70190E00E94FB
:101B2000A20E51105A94F1E08F1A9108BFCF84365B
:101B300019F0893609F077C0F80137FE6BC0608173
:101B40007181828193810C5F1F4FF32DFF763F2EB1
:101B500097FF09C090958095709561957F4F8F4F45
:101B60009F4F689437F82AE030E0A5010E94D20E1A
:101B7000C82ECA188C2C432C36FE0CC0E89440F8B2
:101B8000C91440F434FE05C032FC03C0F32DFE7EC0
:101B90004F2E892C44FE95C0FE01EC0DF11D808175
:101BA000803309F087C0242D297E422E842D887031
:101BB000582E43FC95C040FE8FC09C2C821418F414
:101BC0002C0C922C981844FE91C0B70180E390E051
:101BD0000E94A20E42FE09C088E790E041FE02C0CA
:101BE00088E590E0B7010E94A20EC91408F48AC0EB
:101BF000CA94D12C9FEFC91AD90ACA0CDB1CF60172
:101C000082916F01B70190E00E94A20EAC14BD0456
:101C1000B1F74FCF60817181072E000C880B990BB3
:101C20000E5F1F4F92CFD32CE894D4F82AE030E017
:101C3000853739F1232D297FD22E8F3601F148F4D3
:101C40008835A9F0F701868197812B96E2E10C9403
:101C50004C0F803749F08837A9F7D4FE02C068944A
:101C6000D2F820E130E00DC06894D4F8F6CF34FE0D
:101C700003C0822F8660D82E20E132E002C028E027
:101C800030E0F801D7FE0FC06081718182819381BD
:101C90000C5F1F4FA5010E94D20EC82ECA183D2C02
:101CA000E89437F867CF6081718190E080E00E5F43
:101CB0001F4FF0CF42FC02C0839478CF839483946B
:101CC00075CF842D867809F471CFF6CFB70180E205
:101CD00090E00E94A20E83948214C0F3512C73CF23
:101CE000522C5818821408F46ECFF8CF842D8678C1
:101CF00009F47BCF8BE241FE80E247FC8DE2B70125
:101D000090E071CFB70180E390E00E94A20E9A9418
:101D10006CCF8FEF9FEF99CFFC0105906150704021
:101D20000110D8F7809590958E0F9F1F0895FC01A4
:101D30006150704001900110D8F7809590958E0FFA
:101D40009F1F08950F931F93CF93DF93182F092F91
:101D5000EB018B8181FD09C01FEF0FEF812F902FC9
:101D6000DF91CF911F910F91089582FF14C02E81B2
:101D70003F818C819D81281739073CF4E881F981E6
:101D8000CF0101969983888310838E819F8101966C
:101D90009F838E83E3CFE885F985812F0995892B71
:101DA000A1F3DACFFA01AA27283051F1203181F1CD
:101DB000E8946F936E7F6E5F7F4F8F4F9F4FAF4F53
:101DC000B1E03ED0B4E03CD0670F781F891F9A1F66
:101DD000A11D680F791F8A1F911DA11D6A0F711D1A
:101DE000811D911DA11D20D009F468943F912AE026
:101DF000269F11243019305D3193DEF6CF0108950E
:101E0000462F4770405D4193B3E00FD0C9F7F6CF3E
:101E1000462F4F70405D4A3318F0495D31FD405206
:101E2000419302D0A9F7EACFB4E0A695979587959C
:101E300077956795BA95C9F700976105710508957B
:101E40009B01AC010A2E0694579547953795279527
:101E5000BA95C9F7620F731F841F951FA01D0895BF
:101E60002F923F924F925F926F927F928F929F92AA
:101E7000AF92BF92CF92DF92EF92FF920F931F9398
:101E8000CF93DF93CDB7DEB7CA1BDB0B0FB6F89449
:101E9000DEBF0FBECDBF09942A88398848885F8489
:101EA0006E847D848C849B84AA84B984C884DF80FA
:101EB000EE80FD800C811B81AA81B981CE0FD11DDE
:101EC0000FB6F894DEBF0FBECDBFED010895F894B4
:021ED000FFCF42
:101ED2000F27FFFF0F27FF000000002A018A00B72B
:101EE200007701E800C600DA0000000000120407D3
:101EF200042304DD030004ED03DE0300000000768A
:101F0200058A00230476034F4B004A414D00434F9C
:101F12004D4D5F4641554C540053797374656D20A5
:101F2200496E69742E2E2E00537973204F4B202058
:101F32005370643A2533642525004C6F61643A205E
:101F4200252D313064002A2A204A414D2046415530
:101F52004C54202A2A20002A2A20434F4D4D204645
:101F620041554C54202A2A004E6F204932432052B8
:101F72006573706F6E7365200053746174653A20E7
:101F820000207C2053706565643A2000207C204C40
:0A1F92006F61643A20000D0A0000A0
:00000001FF
